:020000040800F2
:10000000200800209D0100086B160008E11400087C
:1000100069160008A9020008F11A00080000000093
:100020000000000000000000000000004917000868
:1000300059030008000000006D1600084B17000867
:10004000B7010008B7010008B7010008B7010008B0
:10005000B7010008B7010008B7010008B7010008A0
:10006000B7010008B7010008B7010008B701000890
:10007000B7010008AD020008B7010008B902000886
:10008000B7010008B7010008B7010008B701000870
:10009000B7010008B7010008B7010008B701000860
:1000A000B7010008B7010008B7010008B701000850
:1000B000B7010008B7010008B7010008B701000840
:1000C000B7010008B7010008B7010008B701000830
:1000D000B7010008E51A0008B7010008B7010008D9
:1000E000B7010008B7010008B7010008B701000810
:1000F000B7010008B7010008B7010008B701000800
:10010000B7010008B7010008B7010008B7010008EF
:10011000F9170008B7010008B7010008B701000887
:10012000B7010008B7010008C5020008B7010008C0
:10013000B7010008B7010008B7010008B7010008BF
:10014000B7010008B7010008B7010008B7010008AF
:10015000B7010008B7010008D1020008B701000884
:10016000B7010008B7010008B7010008B70100088F
:10017000B7010008B7010008B7010008000000003F
:10018000B7010008B7010008DFF80CD000F07AF8DA
:1001900000480047D11F000820080020064880477B
:1001A00006480047FEE7FEE7FEE7FEE7FEE7FEE75C
:1001B000FEE7FEE7FEE7FEE7E91700088901000811
:1001C0002DE9F05F0546002092469B46884606468C
:1001D000814640241BE0284641464746224600F01F
:1001E00041F853465A46C01A914110D31146184659
:1001F000224600F028F82D1A67EB01084F462246E8
:100200000120002100F01FF817EB00094E41201ECD
:10021000A4F10104DFDC484631462A464346BDE8E6
:10022000F09FD2B201E000F8012B491EFBD27047CB
:100230000022F6E710B513460A4604461946FFF7B2
:10024000F0FF204610BD202A04DB203A00FA02F11C
:10025000002070479140C2F1200320FA03F31943B4
:1002600090407047202A04DB203A21FA02F0002156
:10027000704721FA02F3D040C2F1200291400843B6
:1002800019467047064C074D06E0E06840F0010350
:1002900094E8070098471034AC42F6D3FFF778FF94
:1002A000CC200008EC200008FEE70000014800F028
:1002B000B1B80000A0020020014800F0ABB8000077
:1002C00000030020014800F0A5B8000060030020F2
:1002D000014800F09FB80000C00300200168182307
:1002E000CAB2103AB2FBF3F2054B6FF30901032ACD
:1002F0009B5CC36500D9091D8165084670470000F5
:10030000AC20000810B5014600208B698A6A4FF0C6
:10031000C07453B1B3F5005F15D072B1012A0CD08F
:10032000022A0AD0032A09D104E01AB1012A06D010
:10033000022A03D1C96AC90100D5012010BDC96ACA
:10034000A142FAD010BD002AF7D0012AF2D0022A29
:10035000F3D0032AF3D010BD704772B6FEE72DE943
:10036000F0410446876D00F0A7FA064694F8350080
:100370000025022806D08020606584F834500120D2
:10038000BDE8F0812068016821F016010160206855
:10039000416921F080014161206C08B9A06C20B155
:1003A0002068016821F0080101602068016821F0DF
:1003B000010101600CE000F07FFA801B052807D9DD
:1003C00020206065032084F8350084F83450D7E796
:1003D00020680068C007EED194F85C103F20884088
:1003E000B860012084F8350084F834500020C7E755
:1003F00090F83510022903D0802141650120704713
:10040000052180F835100068016821F001010160C4
:10041000002070472DE9F84304464FF00009CDF85D
:10042000009063484FF41651A56D0068B0FBF1F7DA
:100430002E6894F85C10082000FA01F131420FD0C8
:1004400021680A6852070BD50A6822F004020A6084
:1004500094F85C108840A860606D40F00100606511
:1004600094F85C104FF0010808FA01F0304208D00F
:1004700021684969090604D5A860606D40F0020052
:10048000606594F85C1004208840304208D02168F0
:100490000968890704D5A860606D40F004006065B4
:1004A00094F85C1010208840304218D02168096808
:1004B000090714D5A86020680168490304D50068BD
:1004C000000308D5A16C07E00168C90503D40168E1
:1004D00021F008010160216C09B12046884794F899
:1004E0005C1020208840304231D021680968C9065C
:1004F0002DD5A86094F8350005282068016806D03D
:10050000490347D5006800031DD4616C1CE021F04D
:10051000160101602068416921F080014161206C71
:1005200008B9A06C20B12068016821F008010160C1
:1005300094F85C103F208840A86084F8358084F8E7
:100540003490216D1FE0E16B09B120468847606D52
:1005500000282BD0606DC00714D0052084F835002A
:100560002068016821F0010101600098401C0090A2
:10057000B84203D820680068C007F6D184F83580F7
:1005800084F83490E16C002910D001B02046BDE819
:10059000F04308470168C905D5D4016821F010016E
:1005A000016084F8358084F83490CCE7BDE8F883A6
:1005B000140000202DE9F041044600F07DF90646C4
:1005C0005CB1022084F83500002584F8345020689E
:1005D000016821F0010101600DE00120BDE8F0811A
:1005E00000F06AF9801B052805D9202060650320EA
:1005F00084F83500F2E720680068C007F0D122686F
:10060000116820480140D4E901031843D4E90336B6
:100610003343184363691843A3691843E3691843D4
:10062000236A18430843616A042903D1D4E90B13F0
:1006300019430843106020684069666A20F007018A
:1006400030460E43012704280CD1A06A0643E06A15
:1006500040B12046FFF756FE20B14020606584F887
:100660003570BAE7206846612046FFF737FE94F8F8
:100670005C203F2191408160656584F835700020E1
:10068000ACE700003F8010F070B5044600F014F9AC
:100690000546601C02D004480078044400F00CF9C0
:1006A000401BA042FAD370BD080000202DE9F84F8E
:1006B000DFF8BCA10022012503264FF00F090AF143
:1006C000040BAAF1040E00BF0B6805FA02F42340E4
:1006D000A34270D10F7907F00307012F01D0022F39
:1006E00016D187684FEA420806FA08FC27EA0C0789
:1006F000D1F80CC00CFA08FC4CEA070CC0F808C092
:100700004768A7430C79C4F3001494403C43446009
:100710000C79E443A4070AD0C4684FEA420C06FAF5
:100720000CF7BC438F6807FA0CF72743C7600C79B6
:1007300004F00304022C12D1D40800EB840CDCF882
:1007400020405707FF0E09FA07F824EA0804D1F8F9
:10075000108008FA07F848EA0408CCF820800468FA
:100760004FEA420C06FA0CF7BC430F7907F0030777
:1007700007FA0CF7274307604C6814F4403F70D029
:100780003C4C276847F480472760246822F0030721
:1007900004F480440094384C07EB040CDCF808485F
:1007A00097074FEA177809FA08F7BC43334FB84266
:1007B00002D1002724E054E0314FB84201D1012793
:1007C0001EE0304FB84201D1022719E02E4FB84247
:1007D00001D1032714E02D4FB84201D104270FE0C7
:1007E0002B4FB84201D105270AE02A4FB84201D168
:1007F000062705E0284FB84201D1072700E0082767
:1008000007FA08F72743CCF80878DAF8004057468B
:10081000D1F804C09C435FEACC2C00D51C433C605B
:10082000DBF800405F46D1F804C09C435FEA8C2CA3
:1008300000D51C433C60DEF800407746D1F804C088
:100840009C435FEA8C3C00D51C433C60084F083F4A
:100850003C68D1F804C09C435FEACC3C00D51C4303
:100860003C60521C102AFFF42FAFBDE8F88F000047
:10087000083C014044380240003001400000024082
:100880000004024000080240000C02400010024038
:100890000014024000180240001C0240426921EA94
:1008A00002030A4043EA0241816170470AB1816153
:1008B00070470904FBE700000148806870470000AA
:1008C0000800002002488168027811448160704766
:1008D000080000200B4810B5016841F40071016068
:1008E000016841F480610160016841F48071016038
:1008F000032000F06FF80F2000F006F800F024F855
:10090000002010BD003C024070B50D4D04464FF470
:100910007A712878B1FBF0F00A490968B1FBF0F070
:1009200000F00CFB48B9102C07D200222146501EC3
:1009300000F030F800206C6070BD012070BD000038
:1009400008000020140000200A4808B5016841F49E
:1009500080410160006800F4804000900548001F5D
:10096000016841F080510160006800F08050009003
:1009700008BD000044380240002809DB00F01F02D7
:10098000012191404009800000F1E020C0F80011F1
:1009900070470000F0B40E4B1B680C46C3F30223F3
:1009A000C3F10705042D00D90425191D072901D21B
:1009B000002300E0DB1E012606FA05F1491E214056
:1009C00099409E40761E16403143F0BC01F0A2B81B
:1009D0000CED00E0064900F0070208684FF6FF033F
:1009E000184040EA0220034A1043086070470000A4
:1009F0000CED00E00000FA052DE9F0470E46050079
:100A000065D0DFF81481D8F80000F7B200F00700D5
:100A1000B04207D288F80070D8F8000000F0070054
:100A2000B04254D128683D4C810712D5400703D508
:100A3000206840F4E05020602878000703D5206843
:100A400040F4604020602068A96820F0F00008436E
:100A500020602878C0072DD03049686808390128FF
:100A600012D0022813D0032811D009688907002961
:100A70002DDA216821F0030101432160FFF71CFFFB
:100A8000814641F2883A0EE009688903EFE7096878
:100A90008901ECE7FFF710FFA0EB0901514502D9EE
:100AA0000320BDE8F0872068696800F00C00B0EB17
:100AB000810FEFD1D8F80010404601F00701B14294
:100AC00007D90770006800F00700B04201D001208C
:100AD000E7E72878400705D52068E96820F4E0506A
:100AE000084320602878000706D52068296920F48B
:100AF000604040EAC100206000F038F82168084AF0
:100B0000C1F30311515CC8400649086006480068FB
:100B1000FFF7FAFE0020C4E7003C0240083802401C
:100B2000B4200008140000200C00002004480549EF
:100B300000680968044AC1F38221515CC8407047CB
:100B40001400002008380240C42000080448054969
:100B500000680968044AC1F34231515CC8407047DB
:100B60001400002008380240C4200008154810B5C1
:100B7000006810F00C02144813D01449042A0FD056
:100B8000082A0ED10F4C241F2268236802F03F026E
:100B90005B0207D52068C0F38810A0FB010106E0C6
:100BA000084610BD2168C1F38811A1FB0001002394
:100BB000FFF706FB2168C1F30141491C4900B0FB66
:100BC000F1F010BD083802400024F40040787D01A7
:100BD0002DE9F84F04006ED02078DFF84C93C00761
:100BE000A9F104054AD009F104000168C1F38101AB
:100BF000012908D00068C0F3810002280AD1D9F881
:100C00000000400206D52868800337D560680028B8
:100C1000E1D033E06068B0F5803F10D0B0F5A02F90
:100C2000286810D020F480302860286820F48020C4
:100C300028606068A8B1FFF73FFE06460DE028680F
:100C400040F48030F4E740F480202860F7E700BFEC
:100C5000FFF732FE801B642873D828688003F7D51D
:100C60000CE0FFF729FE064605E000BFFFF724FE73
:100C7000801B6428F0D828688003F7D42078DFF838
:100C8000AC8280074FF0000A3ED5A748001D0168DE
:100C900011F00C0F08D00068C0F3810002280BD1BE
:100CA000D9F80000400207D42868800716D5E0680C
:100CB000012800D112E033E1E068B8B10120C8F8A2
:100CC0000000FFF7F9FD064605E000BFFFF7F4FD61
:100CD000801B0228C0D828688007F7D528682169BA
:100CE00020F0F80040EAC10028600DE0C8F800A03C
:100CF000FFF7E2FD064604E0FFF7DEFD801B022859
:100D00001FD828688007F7D42078000722D5864F9F
:100D100087486169703771B101210160FFF7CCFD2F
:100D2000064604E0FFF7C8FD801B022809D8386892
:100D30008007F7D50EE0C0F800A0FFF7BDFD06461E
:100D400005E082E0FFF7B8FD801B02287DD83868F7
:100D50008007F7D42078400768D5DFF8CCB10027AA
:100D60000BF13C0BDBF80000C0000BD4DBF80010EB
:100D700041F08051CBF80010DBF80000012700F0B3
:100D8000805000906B4E3068C00510D4306840F43D
:100D900080703060FFF790FD009005E0FFF78CFD5C
:100DA0000099401A022850D83068C005F6D55E4E2A
:100DB000A0686C3601280FD00528306810D020F0CC
:100DC00001003060306820F004003060A068B8B1E5
:100DD000FFF772FD00900FE0306840F00100F4E78B
:100DE00040F004003060F7E7FFF766FD0099411A14
:100DF00041F28830814266D830688007F4D50EE031
:100E0000FFF75AFD009007E0FFF756FD0099411AE1
:100E100041F28830814256D830688007F4D42FB12F
:100E2000DBF8001021F08051CBF80010A069C8B3A6
:100E30003D49091D0968C1F3810102294AD00228F0
:100E4000504607D0C8F8600000E03CE0FFF734FDF2
:100E500004463BE04746C8F86000FFF72DFD064614
:100E600005E000BFFFF728FD801B02282BD828686B
:100E70008001F7D4D4E907010843A16A2E4A490842
:100E800002EB0141626A41EA8211084394F82C1096
:100E900040EA0161C9F8001001203866FFF70CFD37
:100EA000044606E03EE000BFFFF706FD001B0228F7
:100EB00009D828688001F7D534E000BFFFF7FCFCB3
:100EC000001B022802D90320BDE8F88F28688001A2
:100ED000F4D427E00128F7D0D9F80000E26900F443
:100EE000800191421CD1226A00F03F01914217D14A
:100EF00047F6C071626A0140B1EB821F10D1A26A4D
:100F00004FF0FF3300F4403103EB5202B1EB024FDC
:100F100006D194F82C1000F07060B0EB016F01D096
:100F20000120D1E70020CFE704380240000047420B
:100F3000800E4742007000400000FFFF10B5401EC9
:100F4000B0F1807F01D3012010BD4FF0E02460613B
:100F50000F21601700F0DEFD0020A0610720206156
:100F6000002010BD70477047F8B501680446086856
:100F7000CA684B6910F00F0F4FF0000559D003F00D
:100F8000010602F49077374365D0C10705D0D1053B
:100F900003D5216C41F001012164410705D5D90732
:100FA00003D0216C41F002012164810705D5D907E6
:100FB00003D0216C41F004012164010707D502F040
:100FC0002001314303D0216C41F008012164216CE0
:100FD00000293AD0800604D5900602D5204600F0BC
:100FE00040FC20684069216CC0F38010090700D4E0
:100FF00060B3204600F00EFC20684069400621D511
:101000002068143050E8001F21F0400140E8001231
:10101000002AF5D1A06BA8B16C490165A06BFFF760
:10102000E7F9002811D0A06B016D01B0BDE8F040D8
:10103000084783060FD593060DD52046BDE8F84036
:1010400000F00FBC2046FFF78EFFF8BD2046FFF7EB
:101050008AFF2564F8BD266B2023012E79D1C606B0
:1010600077D5D60675D50868486800904869400667
:1010700040D5A16B086840680004000CEAD0A28D3E
:101080008242E7D9E085C869B0F5807F2DD020681D
:101090000C3050E8001F21F4807140E80012002A53
:1010A000F5D12068143050E8001F21F0010140E81C
:1010B0000012002AF5D12068143050E8001F21F0FA
:1010C000400140E80012002AF5D184F83E30256343
:1010D00020680C3050E8001F21F0100140E8001299
:1010E000002AF5D1A06BFFF73AF9A08DE18D401AE7
:1010F00081B229E0A08DE18D401A81B2E08D0028F7
:10110000A8D00029A6D020680C3050E8002F22F487
:10111000907240E80026002EF5D12068143050E887
:10112000002F22F0010240E80026002EF5D184F8BD
:101130003E30256320680C3050E8002F22F010026A
:1011400040E80023002BF5D12046FFF70BFFF8BD48
:10115000FFE705062BD5150629D594F83D00212873
:10116000F5D1A068B0F5805F01D12069B0B1206AE7
:10117000411C2162216800784860E08C401E000418
:10118000000CE084E3D12068C16821F08001C160D7
:101190002068C16841F04001C160D8E7206A00883A
:1011A000C0F308004860206A801C2062E5E7400622
:1011B000CDD55006CBD5CA68204622F04002CA6081
:1011C00084F83D3000F08BF9C1E7000005180008F5
:1011D00070B5040004D094F83D00002510B106E07D
:1011E000012070BD84F83C50204600F023F82420F4
:1011F00084F83D002068C16821F40051C160204698
:1012000000F090FB2068016921F4904101612068A1
:10121000416921F02A0141612068C16841F400510F
:10122000C1602564202084F83D0084F83E00002041
:1012300070BD00002DE9F04786B0044614216846D1
:10124000FEF7F6FF584E0221236858480322002576
:101250008F064FF0400A4FF48069B3424DD1534B93
:1012600010331E6846F400261E601B6803F400233A
:101270000593036843F004030360006800F0040072
:10128000059090028DE823000820CDE903206946EF
:101290004748FFF70BFA484E4648B8463060C6E963
:1012A0000175C6E903597561B561F56135624F464F
:1012B00030467562FFF77EF908B1FFF74EF8A66376
:1012C000B4633D4E3B4860363030C6E90357756124
:1012D000B561F5613562756286E801053046FFF754
:1012E00069F908B1FFF739F8666300221146342026
:1012F000B463FFF74FFB342050E0304EB3424FD180
:101300002A4B14331E6846F010061E601B6803F05B
:1013100010030593036843F001030360006800F0C5
:10132000010005904FF4C0608DE823000720CDE94F
:10133000032069462248FFF7B9F91F4E2148C036FD
:10134000B8463060C6E90175C6E903597561B561F3
:10135000F56135624F4630467562FFF72BF908B1EB
:10136000FEF7FBFFA663B463174E1648C6E90357A2
:101370007561B561F56135627830756286E80105A1
:101380003046FFF717F908B1FEF7E7FF6663002262
:1013900011462520B463FFF7FDFA2520FFF7ECFA8C
:1013A00006B0BDE8F0870000004C00403038024035
:1013B0000008024040600240A002002000100140EE
:1013C0000000024040640240C003002090F83E301C
:1013D000202B0ED159B152B190F83C30012B08D0DE
:1013E000012380F83C300023036300F021BB01207F
:1013F0007047022070470000094988420FD1094A0E
:101400001188FF290BD80068436807484354491CDA
:1014100089B21180014401220148FFF7D7BF70470C
:101420005C02002000000020180000202DE9F84395
:10143000044690F83D001F4616460D4620284CD124
:10144000C5B1BEB194F83C00012846D0012084F813
:101450003C004FF00008C4F84080212084F83D0093
:10146000FFF72AFAA6848146E684A068B0F5805F7B
:1014700003D004E00120BDE8F883206928B12E469E
:101480005FF0000584F83C800EE00026FAE780213A
:10149000204600F0EAFAA0B9AEB116F8010B2168B7
:1014A0004860E08C401EE084E08C4B464FF0000228
:1014B00000970028EBD14FF04001204600F0D5FA0C
:1014C00030B10320D7E735F8020BC0F30800E6E798
:1014D000202084F83D000020CDE70220CBE77047B4
:1014E000FEE70000194808B5016841F48001016079
:1014F000016801F480010091016841F4001101606C
:101500000068002200F40010009011460D20FFF743
:1015100041FA0D20FFF730FA002211460F20FFF7A5
:1015200039FA0F20FFF728FA002211463A20FFF778
:1015300031FA3A20FFF720FA002211464620FFF741
:1015400029FABDE808404620FFF716BA30380240B5
:101550002DE9F04186B014216846FEF769FE234864
:101560000024016841F004010160016801F00401F8
:101570000591016841F080010160016801F080017E
:101580000591016841F008010160016801F008015E
:101590000591016841F0010101600068144F00F0FD
:1015A00001000590002202213846FFF77FF9DFF89D
:1015B00044804FF40046002231464046FFF776F95A
:1015C000022000900125CDE9015469463846039474
:1015D000FFF76CF80096CDE9015469464046039444
:1015E000FFF764F806B0BDE8F08100003038024033
:1015F00000080240000C02400C4810B50A49016086
:101600004FF4E1314160002181600C22C160C0E9EA
:1016100004128161C161FFF7DBFD002803D0BDE842
:101620001040FEF79ABE10BD004C0040180200208A
:101630000C4810B50A4901604FF4E13141600021C6
:1016400081600C22C160C0E904128161C161FFF7B1
:10165000BFFD002803D0BDE81040FEF77EBE10BDE0
:10166000001001405C020020FEE7FEE7704700002A
:101670000B4910B5002008800A4901220A48FFF7EB
:10168000A5FE0120FFF700F800224FF400410748B3
:10169000FFF70CF9BDE810400120FEF7F5BF000090
:1016A00000000020180000205C020020000C024016
:1016B00030B50A4A0346108801B90146814200D973
:1016C00001460020064C03E0255C1D54401C80B2FE
:1016D0008842F9D308460021118030BD0000002067
:1016E000180000202DE9F04180460F460120FEF74A
:1016F000CBFF0122124ED50329463046FFF7D6F81C
:101700000120FEF7C1FF4FF0FF3423463A46414621
:101710000C48FFF78BFE07460120FEF7B5FF0120BE
:10172000FEF7B2FF002229463046FFF7BFF801203E
:10173000FEF7AAFF17B12046BDE8F0810020FBE7C5
:10174000000C02405C0200207047FFF7BBB80000AD
:1017500030B593B030216846FEF76AFD14210CA81D
:10176000FEF766FD1E480025016841F080510160CA
:10177000006800F0805011901A48016841F48041DF
:1017800001600068022400F4804011900120009064
:10179000000401908001CDE90640192008904FF423
:1017A000A870CDE9090404200B906846FFF710FAF1
:1017B00008B172B6FEE70CA90F2081E831004FF4A2
:1017C000A0500F904FF48050109005210CA8FFF707
:1017D00013F9002801D072B6FEE713B030BD000047
:1017E00040380240007000400248016841F4700136
:1017F0000160704788ED00E00148FFF7B5BB0000CD
:101800001802002010B5806B0021C185C184FFF74C
:10181000AAFB10BD01680C3151E8002F22F4907230
:1018200041E80023002BF5D10168143151E8002F65
:1018300022F0010241E80023002BF5D1016B0129C0
:1018400009D101680C3151E8002F22F0100241E863
:101850000023002BF5D1202180F83E1000210163E8
:10186000704708B590F83E10222901D0022008BD2B
:1018700082684FF480539A4201D1016921B1816A93
:101880009A421BD04AB10AE00268816A5268C2F3E8
:1018900008020A80816A891C08E0026972B1026844
:1018A000526802F07F020A70816A491C8162C18D10
:1018B000491E0904090CC18503D019E00268526869
:1018C000F1E70168CA6822F02002CA600168CA68AC
:1018D00022F48072CA6001684A6922F001024A61FA
:1018E000202180F83E10016B012903D0FFF784FD11
:1018F000002008BD0021016301680C3151E8002F70
:1019000022F0100241E80023002BF5D101680A689B
:10191000D20602D50A6849680091818DFFF722FB43
:10192000E6E7000070B5044600680169E26821F44A
:101930004051114301612169A068E269084361696E
:10194000114308432168CA6849F20C639A43024371
:10195000CA6020684169A26921F440711143416164
:1019600031492068884202D03049884202D1FFF7CD
:10197000EDF801E0FFF7DAF8E269002319216425A8
:101980003226B2F5004F626828D0A0FB0101930F08
:101990009200FEF715FC0146B0FBF5F06FF018025F
:1019A000504301EB800006EB0010B0FBF5F000F0B7
:1019B000F002B1FBF5F002EB0012B1FBF5F06FF0B5
:1019C0001803584301EB800006EB0010B0FBF5F064
:1019D00000F00F0021681044886070BDA0FB010179
:1019E00092185B41FEF7ECFB0146B0FBF5F00201FB
:1019F000B1FBF5F06FF01803584301EB800006EBE4
:101A0000C000B0FBF5F000F0F80002EB4002B1FBC3
:101A1000F5F0584301EB800006EBC000B0FBF5F099
:101A200000F00700D6E7000000100140001401405C
:101A300081628285C28500210164222280F83E20D5
:101A400080F83C10016921B10168CA6842F48072D3
:101A5000CA6001684A6942F001024A610068C168CF
:101A600041F02001C160002070472DE9F041984607
:101A700017460E460446069D27E0681C25D02DB16A
:101A8000FEF71AFFA0EB0800A8421ED920680C3010
:101A900050E8001F21F4D07140E80012002AF5D16F
:101AA0002068143050E8001F21F0010140E80012C6
:101AB000002AF5D1202084F83D0084F83E00002063
:101AC00084F83C000320BDE8F0812068006836EA15
:101AD000000004D00020B842CFD00020F3E701205E
:101AE000F9E700000148FFF73FBA00005C02002060
:101AF000FEE700000FB4054B10B503A9044A029895
:101B000000F028F810BC5DF814FB0000B91F0008B5
:101B1000040000200907090E002804DB00F1E02082
:101B200080F80014704700F00F0000F1E02080F80A
:101B3000141D704702E008C8121F08C1002AFAD11C
:101B400070477047002001E001C1121F002AFBD13D
:101B5000704700002DE9FF4F8DB00F460546002667
:101B600006E025280BD0DDE90F1290476D1C761C8E
:101B700028780028F5D111B03046BDE8F08F002458
:101B8000A246A1460122EC4900E0044315F8013FBA
:101B9000203B02FA03F00842F7D128782A2810D017
:101BA0006FF02F022878A0F13001092914D80AEB30
:101BB0008A0102EB410144F0020400EB010A6D1CB2
:101BC000F0E701CF5FEA000A03D544F40054CAF1FC
:101BD000000A44F002046D1C28782E2817D115F84D
:101BE000010F44F004042A280ED06FF02F02287849
:101BF000A0F1300109290AD809EB890102EB410162
:101C000000EB01096D1CF2E757F8049B6D1C287866
:101C10006C280FD006DC4C2817D068280DD06A2815
:101C200014D104E0742810D07A280FD10DE044F4C8
:101C300000140AE044F4801401E044F4401469788C
:101C4000814202D104F580146D1C6D1C2A786E2A25
:101C50001FD00CDC632A31D004DC002A8BD0582A38
:101C600011D1A3E0642A68D0692A0CD165E0732AF7
:101C70002ED004DC6F2A73D0702A04D19BE0752A21
:101C80006FD0782A6ED01046DDE90F129047761C8F
:101C900050E1C4F30250022806D0032809D00428DA
:101CA00001CF09D0066045E101CFF117C0E900611D
:101CB00040E101CF06803DE106703BE117F8040BDF
:101CC0008DF8000000208DF80100EB46012003E0B4
:101CD00057F804BB4FF0FF3061074FF0000102D40A
:101CE0000DE008F10101884649450FDA8045F8DB2F
:101CF0001BF808100029F4D108E008F1010188461A
:101D00008142FADB1BF808100029F6D1DDE90F2328
:101D1000AAEB08008146214600F036F9304400EB7A
:101D2000080604E0DDE90F121BF8010B9047B8F13B
:101D30000108F7D221464846F7E00A21C4F30253CE
:101D40004FF0000B0891022B04D001CFC117032BD9
:101D500009D00AE0FF1D27F00707F7E8020108E0B5
:101D600032E01FE020E000B2C117042B01D140B2E5
:101D7000C117031E71F1000307DA4FF0000CD0EB1E
:101D80000C006CEB01012D2302E0230504D52B236D
:101D90008DF82430012303E0E30701D02023F7E787
:101DA000984658E00A2110E010210EE010204FF074
:101DB000000B08900CE010214FF0000B44F00404DD
:101DC0004FF00809089103E008214FF0000B08913B
:101DD000C4F30253022B04D001CF0021032B06D001
:101DE00006E0FF1D27F00707F7E8020103E080B2D5
:101DF000042B00D1C0B24FF0000823072BD5702A66
:101E000007D0DDF820C08CF0100C5CEA0B0C05D07C
:101E10000EE040238DF82430012308E050EA01034E
:101E200006D030238DF824308DF8252002239846E3
:101E3000DDF820C08CF0080C5CEA0B0C0BD150EAEA
:101E4000010301D1630706D530238DF824304FF00C
:101E50000108A9F10109582A04D038A20B9208AA56
:101E60000A920BE03AA2F9E75B46089AFEF7A8F956
:101E70000B9B9B5C0A9A521E0A92137050EA010255
:101E8000F2D10A98ADEB000000F1200B600702D5FB
:101E900024F4803401E04FF00109D94502DDA9EBBB
:101EA0000B0000E0002000EB0B0141440890AAEB7E
:101EB000010AE00306D4DDE90F232146504600F075
:101EC00063F806444FF0000908E009A911F8090079
:101ED000DDE90F12904709F10109761CC145F4DBD9
:101EE000E0030CD5DDE90F232146504600F04CF805
:101EF000064404E0DDE90F1230209047761C089973
:101F0000481E08900029F5DC08E00A980A99007834
:101F1000491C0A91DDE90F129047761CBBF10001C4
:101F2000ABF1010BF1DC21465046DDE90F2300F057
:101F300019F806446D1C1BE60928010030313233C4
:101F400034353637383961626364656600000000F5
:101F500030313233343536373839414243444546DF
:101F6000000000002DE9F041044600251E461746FA
:101F7000880404D405E039462020B0476D1C641E57
:101F8000F9D52846BDE8F0812DE9F0410446002549
:101F90001E469046C80301D5302700E0202788045C
:101FA00004D505E041463846B0476D1C641EF9D59E
:101FB0002846BDE8F081000013B54FF6FF730122FB
:101FC00069460248FFF732FA00981CBD180200204B
:101FD000FEF780FCFFF7BCFBFFF7BAFAFFF782FAC7
:101FE000FFF70AFBFFF724FB18A0FFF783FDFFF7BD
:101FF0003FFBDFF878801E4F1E4E02214046FEF761
:102000004DFCC820FEF740FB38880028F5D00021A1
:102010001848FFF74DFB0500EFD0014616A0FFF76B
:1020200069FD1CA0FFF766FD002404E0315D1DA0E2
:10203000FFF760FD641CAC42F8DB15A0FFF75AFD0A
:1020400029460C48FFF74EFBD7E700002D2D2D2D1C
:102050002D20525334383520312320426F61726471
:10206000202D2D2D2D2D0D0A00000000000802400E
:1020700000000020180100205265636569766564E0
:102080002044617461204C656E6774683A20256451
:102090000A000000526563656976656420446174D6
:1020A000613A20002530325820000000000610164A
:1020B00000061016000000000000000001020304EA
:1020C000060708090000000001020304EC200008D4
:1020D0000000002018000000341B00080421000844
:1020E0001800002008080000441B00080000000041
:1020F00000000000010000001000000000000000CF
:042100000024F400C3
:040000050800018965
:00000001FF
